:020000040800F2
:100000006884012009290008ED030008EF030008B7
:10001000F3030008F7030008FB03000800000000DA
:100020000000000000000000000000001B29000884
:10003000FF0300080000000071D60108917B000852
:10004000232900082329000823290008810A000821
:100050002329000823290008232900089F130008EA
:100060002329000823290008232900082329000840
:100070002329000823290008ED1000086911000851
:100080002329000823290008232900082329000820
:10009000951500082329000823290008BF1300082C
:1000A0002329000823290008232900082329000800
:1000B000232900085B080008898400082329000818
:1000C00023290008232900082329000823290008E0
:1000D00023290008877D000823290008031D000844
:1000E0007D130008630A000823290008232900085B
:1000F00023290008232900082329000823290008B0
:10010000232900082329000823290008232900089F
:10011000232900082329000823290008232900088F
:10012000232900082329000823290008232900087F
:1001300023290008A90C0008232900082329000806
:10014000232900082329000823290008232900085F
:10015000232900082329000823290008AF260008C6
:10016000232900082329000823290008232900083F
:10017000232900082329000823290008232900082F
:10018000232900082329000800F002F800F076F87F
:100190000AA090E8000C82448344AAF10107DA45E2
:1001A00001D100F06BF8AFF2090EBAE80F0013F0BE
:1001B000010F18BFFB1A43F0010318478CE601003A
:1001C000ACE601000A444FF0000C10F8013B13F0BC
:1001D000070408BF10F8014B1D1108BF10F8015BA0
:1001E000641E05D010F8016B641E01F8016BF9D193
:1001F00013F0080F1EBF10F8014BAD1C0C1B09D1EA
:100200006D1E58BF01F801CBFAD505E014F8016B5B
:1002100001F8016B6D1EF9D59142D6D370470000ED
:100220000023002400250026103A28BF78C1FBD8FF
:10023000520728BF30C148BF0B60704764291DF0CA
:10024000D38375291DF0D08378291DF00984632993
:100250001DF0AF8673291DF0B486002070471FB5CE
:100260001DF0F8FF1DF03AFE0400002000211DF0F3
:10027000DBFF401C60601FBD10B510BD1DF091FF7D
:100280001146FFF7ECFF00F018F81DF0BDFF03B4B6
:10029000FFF7F2FF03BC07F01DFD00000021002264
:1002A00000BF07E0002200E0521C44F620639A429F
:1002B000FAD3491C8142F5D3704710B5A82007F046
:1002C00088FC00F007FB01F0E7FA4FF4A06002F0B1
:1002D0003BFB00201DF01FFA02201DF01CFA01F06C
:1002E0008EF84FF40071354802F0A0FC4FF48061A5
:1002F000324802F09BFC01F05EFB01F0A0FE002002
:100300002F49C1F8180C81F81C0C81F81D0C81F8DC
:100310001E0C2C4906F090FE2B49002006F026FF0B
:1003200028480078294908602748807828490860CB
:100330004FF40051214802F07BFC4FF47A70FFF734
:10034000ADFF4FF400511D4802F070FC1C48B0F89E
:10035000980220F010001A49A1F898021AF073FBD5
:1003600000201BF09EFE1B49086000201BF099FE38
:100370001949086000201BF094FE1849086000200D
:100380001BF08FFE16490860124800681BF0CFFF73
:10039000114800681BF0CBFF104800681BF0C7FF36
:1003A0000F4800681BF0C3FF1B230E4A00210E48B4
:1003B0001CF0EAF81AF06CFC002010BD001402409A
:1003C000800A0020C8030020CC030020E4030020A2
:1003D000E8030020D0010020D4010020D801002033
:1003E000DC0100207C07002081AE0008704700BFC0
:1003F000FEE700BFFEE700BFFEE700BFFEE7704775
:100400000CB50020019000907648006840F48030E0
:100410007449086000BF7348006800F40030009021
:100420000198401C0190009818B90198B0F5A04FB0
:10043000F1D16C48006800F4003010B10120009048
:1004400001E0002000900098012846D16548403026
:10045000006840F08050634940310860624800689D
:1004600040F44040604908605E48083000685D49DB
:10047000083108600846006840F4004008600846FB
:10048000006840F4A05008605848091F0860081F21
:10049000006840F08070091F086000BF5148006884
:1004A00000F000700028F9D040F205605049086063
:1004B0004C480830006820F003004A4908310860C1
:1004C0000846006840F00200086000BF4548083058
:1004D000006800F00C000828F8D10CBD10B54548A4
:1004E000006840F47000434908603E48006840F0EE
:1004F00001003C49086000203A4908310860394849
:1005000000683D490840374908603C48091D0860BB
:10051000081F006820F48020091F0860002031496E
:100520000C310860FFF76CFF4FF0006031498039F3
:10053000086010BD70B500200022022300240221B3
:10054000284D08352D6805F00C0020B1042806D090
:10055000082834D107E02A4D2A4E356033E02A4D71
:10056000284E35602FE01F4D2D1D2D68C5F380549A
:100570001C4D2D1D2D6805F03F0154B1224DB5FBDA
:10058000F1F5184E361D3668C6F3881605FB06F2DF
:1005900009E01B4DB5FBF1F5124E361D3668C6F36A
:1005A000881605FB06F20F4D2D1D2D68C5F301457C
:1005B0006D1C6B00B2FBF3F5124E356003E0104D7D
:1005C000104E356000BF00BF064D08352D68C5F3DD
:1005D00003150E4E705D0B4D2D68C540094E3560FC
:1005E00070BD000000380240007000401954400700
:1005F000003C024088ED00E0FFFFF6FE10300024D2
:100600000024F400E001002040787D01E401002096
:1006100001460868704701466C48814201D20020BB
:1006200070476B48814201D20820F9E7694881424E
:1006300001D21020F4E76848814201D21820EFE788
:100640006648814201D22020EAE76548814201D212
:100650002820E5E76348814201D23020E0E7624884
:10066000814201D23820DBE76048814201D240203C
:10067000D6E75F48814201D24820D1E75D488142F8
:1006800001D25020CCE75820CAE72DE9F0470446B4
:100690000E4617464FF009080025A946B4F1006F31
:1006A00002D304F0030008B1BDE8F08705F0ECFFC9
:1006B000002005F0CCFF254604EB87094E48854213
:1006C00015D211E02846FFF7A3FF401C58B1284679
:1006D000FFF7A1FF8246022106F02AF88046B8F112
:1006E000090F01D002E02D1D4D45EBD300BFB8F13D
:1006F000090F0CD108E02046316806F032F90928CC
:1007000000D003E0241D361D4C45F4D300BF01206A
:1007100005F09DFF05F0C5FF00BFC5E730B50346F6
:100720000C461546002206E01846FFF771FF44F814
:1007300022001B1D521CAA42F6D330BD38B5044618
:100740002E4D012269462846FFF7E8FF2C49009804
:10075000884201D0012038BD2D1D012221462846A6
:10076000FFF7DCFF0020F6E738B50446234D2448A8
:100770000090012269462846FFF787FF2D1D0122C0
:1007800021462846FFF781FF002038BD10B50446FA
:10079000C0202070A82060700220A0701E20E07091
:1007A000FF202071FF216171A1710021E171C02042
:1007B0002072A82161720221A1720121E17249F621
:1007C0004040E0602046FFF7CFFF10BD004000082A
:1007D0000080000800C000080000010800000208B6
:1007E00000000408000006080000080800000A08CD
:1007F00000000C0800000E080000FF1F0020030886
:10080000785634127FB504460D461D4802F0CEFDE1
:100810000121022002F075FCADF804500020ADF873
:1008200006000294ADF80C0001A9154802F06BFE19
:1008300001221146124803F007FB1D208DF800002D
:1008400001208DF8010003208DF8020001208DF8B1
:100850000300684602F07DF87FBD10B5012108480D
:1008600003F009FB012805D106480068C04306498A
:10087000C1F89C020121024803F00EFB10BD0000EC
:10088000000400409C82434200804342F8B5044685
:100890000D4617461E468DF800408DF801508DF824
:1008A00002708DF803606946002006F05BFBF8BD1E
:1008B000F8B504460D4617461E468DF802708DF8B1
:1008C00001508DF800608DF803406946002006F065
:1008D000E7FBF8BD3EB541F6FF740121080702F0C1
:1008E00010FC012007F09BF8002006F097FF45F26E
:1008F000500188422ED0012002F057FA01E0601C1E
:1009000084B2412002F00AFA0028F8D00CB9012084
:100910003EBD4FF4807002F049FB012002F061FB04
:100920007F200190FF20029000200090684606F092
:100930007EFA002338223B211720FFF7A7FF01236F
:10094000052211460E20FFF7B3FF45F250010020AB
:1009500006F057FF0020DBE7F0B587B004460D46F0
:1009600016461F4600214FF4807006F0D9FC8DF822
:1009700000508DF801608DF8027000208DF80300A2
:100980008DF810404FF080400390002002900098B6
:10099000019001AA4FF48071002006F00AFC4FF488
:1009A000805007F01DF84FF4003004F0EEFE0121F6
:1009B000080306F0A9FF0121080206F0B1FC4FF47C
:1009C0000030059000208DF8180008208DF81900DF
:1009D00001208DF81A0005A804F066FE2920304990
:1009E00008700220487088700120C870084601F025
:1009F000B0FF07B0F0BD7CB505460C46002006F000
:100A000014FD284606F0ECFC204606F0FEFC4FF4F0
:100A1000804006F0E5FF4FF4800004F0B6FE0121AF
:100A2000880306F071FF012006F0FFFC4FF4800000
:100A3000009000208DF8040008208DF805000120AA
:100A40008DF80600684604F02FFE03201449087054
:100A50000220487088700120C870084601F079FFB4
:100A60007CBD10B54FF4807006F07DFF012802D1E7
:100A7000000206F089FF4FF4003004F086FE10BD3E
:100A800010B54FF4806006F06EFF012802D180029D
:100A900006F07AFF4FF4800004F077FE10BD0000EE
:100AA000F40100201CB502208DF804008DF805002B
:100AB00000208DF806008DF807000121880302F060
:100AC00031FB0121084602F0D3FA4FF48070009008
:100AD0006946DE4802F02EF800220821DB4802F0C9
:100AE000B4F800214FF4800002F0A6F91CBD10B547
:100AF000B0B001214FF0606002F0BAFA03F0E0FC00
:100B000004F05BFA00BF04F05FFA0128FBD001A8F3
:100B100003F0E1FC01200190002008904FF40070E8
:100B20000B9000200C900F9012901490159016903E
:100B300021904FF000702290001124900020269008
:100B4000279004202990C0052A9040122B90800104
:100B50002C9040122D9040002F90002101A803F00E
:100B600074FDC4B2012C03D10121B94804F043FA49
:100B7000204630B010BD08B53D208DF800000020A3
:100B80008DF801008DF8020001208DF80300684601
:100B900001F0DFFE08BD1CB50024FFF783FF012133
:100BA000452002F065FA0121880302F0BBFA01201A
:100BB00002F0E4FB8620009003208DF8050002205F
:100BC0008DF8040000208DF806008DF807006946B6
:100BD0009E4801F0AFFF0B2201219C4802F035F83E
:100BE0000B220221994802F030F80B220721974886
:100BF00002F02BF8322000906946964801F09AFFE7
:100C00000B220121934802F020F80B220421914885
:100C100002F01BF80B2205218E4802F016F84FF463
:100C2000D040009069468C4801F084FF0B221146A9
:100C3000894802F00AF80B220D21874802F005F8D6
:100C40000B220E21844802F000F8012000900320BE
:100C50008DF8050001208DF8040000208DF80600B5
:100C60008DF807006946794801F064FF00207B4950
:100C700008604FF4FA7006F0FDFF01207849C1F8D2
:100C80008002FFF778FFFFF732FF04460CB901201E
:100C90001CBD0020FCE710B51F21002003F0A4FCC0
:100CA000C0F38204204610BD10B501E008F066F9DB
:100CB0006C48006804F05DF90028F7D1402004F08A
:100CC000B1F94FF4803004F0ADF910BD1EB500212C
:100CD0000022009201920292624A1268126802F0A7
:100CE000004282B1002200925F4A526902F0800203
:100CF00022B180225C4B5A6100229A609DE81C0060
:100D000080E81C001EBD574A1268126802F40042B7
:100D1000B2B9544A1268126802F4807282B1514A20
:100D20001268126802F4007252B14E4A12681268D8
:100D3000C2F30D42111F4B4A12689268019200E003
:100D400000210091474A12680292464A1268D2680E
:100D5000444B1A609DE81C0080E81C0000BFD1E7EE
:100D6000014642480068006800F0004008B10020D9
:100D70007047C1F30C003D4A126850603B48006860
:100D8000006840F04050394A1268106037480068E7
:100D9000006840F00040354A1268106032484069EF
:100DA00000F0040020B104202F4A50610020506060
:100DB0002E480068C0682D4A10600120D8E72B48F3
:100DC00000688068704710B52948016800201CF051
:100DD00058FD2848016800201CF053FD2648016892
:100DE00000201CF04EFD2548016800201CF049FD44
:100DF00010BD10B5A02100201CF053FD1C49086057
:100E0000A02100201CF04DFD1A49086041F6C45194
:100E100000201CF046FD1849086041F6C45100202E
:100E20001CF03FFD154908601148006840B11148A9
:100E3000006828B11048006810B10846006818B969
:100E4000FFF7C1FF012010BD0020FCE700000240B9
:100E500040000100000802400018024080024042A9
:100E6000000040424802002000900240440200205E
:100E7000F8010020FC0100200002002004020020F4
:100E800010B5044600BF0221BE4804F097FE0028BA
:100E9000F9D02146BB4804F048FE00BF0121B94803
:100EA00004F08CFE0028F9D0B64804F03BFEC0B236
:100EB00010BD1CB50121022002F0DAF802208DF8E5
:100EC000040000208DF806004FF4604000900120DF
:100ED0008DF8070003208DF805006946AA4801F047
:100EE00029FE05220D21A84801F0AFFE05220E21A2
:100EF000A54801F0AAFE05220F21A34801F0A5FE96
:100F00001CBD10B586B00446FFF7D3FF012188034E
:100F100002F0F7F80020ADF804004FF48270ADF84D
:100F200006004FF40060ADF808000020ADF80A009C
:100F3000ADF80C004FF40070ADF80E00ADF81040A5
:100F40000020ADF812000720ADF8140001A98D486B
:100F500004F070FC01218B4804F066FD06B010BD62
:100F600010B504464FF4007100201CF09AFC87492C
:100F70000860FFF79EFF2046FFF7C3FF10BD00B5D6
:100F800091B00121480502F073F80E208DF804009D
:100F900001208DF8050002208DF8060001208DF853
:100FA000070001A801F0D5FC794804F09BF9002066
:100FB000029074480C30039074480068049000203C
:100FC00005904FF480700690002007904FF48060E9
:100FD00008904000099080000A9000200B904FF488
:100FE00000300C9000200D9001200E9000200F90FA
:100FF000109002A9664804F017FA012211466148D0
:1010000004F0B1FD6248183004F06CF90020029041
:101010005C480C3003905D480068049040200590C7
:1010200080000690002007904FF4806008904000F8
:10103000099080000A9000200B904FF400300C9033
:1010400000200D9001200E9000200F90109002A91A
:101050004F48183004F0E8F901220221494804F011
:1010600082FD4FF0FF304B490860012210214848B3
:1010700004F0A1FA11B000BD10B5044604EB8400E1
:10108000454901EB80000C3004EB8401424A02EB3D
:101090008101097A50F821003D49583948660021FC
:1010A0003B4804F01CFA00213948183004F017FAC4
:1010B0004FF48071364804F012FA4FF480713448CE
:1010C000183004F00CFA3549314804F0BBFA3449C1
:1010D0002F48183004F0B6FA01212D4804F0DEF94B
:1010E00001212B48183004F0D9F910BD10B52D4955
:1010F000274804F07DFAB0B301202B4908602B4942
:10110000C1F898022A4908602849C1F89C02214880
:101110000068002823DB1F48006804281FDA1D48E8
:10112000006800EB80001C4901EB8000007A401C45
:1011300000F001001749096801EB8101164A02EB32
:10114000810108721349096801EB810102EB8101F9
:1011500048681BF0ECF84FF0FF300E490860114969
:101160000B4804F06FFA10BD10B51249084818304A
:1011700004F03EFA20B10F490548183004F062FA35
:1011800010BD0000003800400004024008020020AA
:10119000586002400C020020746A002000F0409F5A
:1011A0003DF000A000800018B08240420080434221
:1011B000AC82434220800020FF20B1490870704774
:1011C00000B585B00121802001F052FF0121880384
:1011D00001F0A8FF00208DF8080001208DF80B0019
:1011E0000002019001A9A74801F0A4FC08210720F2
:1011F00002F0A3F84FF48070039000208DF81000E7
:101200000C208DF8110001208DF8120003A804F0C5
:101210004BFA17208DF8000001208DF801008DF8A1
:1012200002008DF80300684601F093FB05B000BD95
:1012300000B585B00121402001F01AFF012188038B
:1012400001F070FF00208DF8080001208DF80B00E0
:101250008020019001A98C4801F06CFC0721062038
:1012600002F06BF88020039000208DF810000C2015
:101270008DF8110001208DF8120003A804F014FA73
:1012800017208DF8000001208DF801008DF8020074
:101290008DF80300684601F05CFB05B000BD00B5A9
:1012A00085B00121080201F0E3FE0121880301F06D
:1012B00039FF00208DF8080001208DF80B00022076
:1012C000019001A9714801F035FC0121082002F0CC
:1012D00034F80220039000208DF810000C208DF8C7
:1012E000110001208DF8120003A804F0DDF9072099
:1012F0008DF8000001208DF801008DF802008DF8B6
:101300000300684601F025FB05B000BD00B585B0BF
:101310000121402001F0ACFE0121880301F002FF11
:1013200000208DF8080001208DF80B00C00301900B
:1013300001A9554801F0FEFB0F21062001F0FDFF39
:101340004FF40040039000208DF810000C208DF821
:10135000110001208DF8120003A804F0A5F928203F
:101360008DF8000001208DF801008DF802008DF845
:101370000300684601F0EDFA05B000BD10B54FF46A
:10138000004004F0F7F948B1414800681AF0CFFF77
:10139000012040490870C00304F0F7F910BD10B5F2
:1013A000022004F0E7F948B1394800681AF0BFFF9D
:1013B000012038494870022004F0E7F910BD10B54B
:1013C000802004F0D7F950B1314800681AF0AFFF1F
:1013D000012030498870802004F0D7F90EE04FF4E6
:1013E000807004F0C7F948B1294800681AF09FFFDF
:1013F00001202849C870000204F0C7F910BD1CB5CF
:101400000121202001F034FE0121082001F030FEEE
:101410004020009000208DF804008DF80600032085
:101420008DF8050000208DF8070069461A4801F084
:1014300081FB4FF40050009001208DF80400002043
:101440008DF8060003208DF8050001208DF80700B7
:101450006946124801F06EFB4FF4C0600090012015
:101460008DF8040000208DF8060003208DF805009B
:1014700001208DF807006946084801F05BFB1CBDA0
:1014800010020020001C0240001802400020024010
:101490000000002011020020000C02400014024055
:1014A0002DE9F0418AB004460D4616461F46DDF888
:1014B00040800121084601F0DBFD0121480601F0D2
:1014C00020FE4FF4C050089002208DF82400002028
:1014D0008DF8260003208DF8250001208DF82700C7
:1014E00008A9904801F026FB09220B218D4801F044
:1014F000ACFB09220C218B4801F0A7FB00208DF8E2
:101500001A008DF81B008DF81C008DF81D008DF859
:101510001E008DF81F008DF816808DF817408DF88D
:1015200018608DF81950ADF8147005A97E4804F0C4
:101530008EFB00208DF80E008DF80F0001208DF835
:1015400010000020ADF80400ADF80600ADF808006A
:10155000ADF80A00ADF80C0001208DF8110001A8CB
:1015600004F0FFFB012202216F4804F0F9FE142071
:101570008DF8000001208DF8010000208DF8020098
:1015800001208DF80300684601F0E3F900200AB05D
:10159000BDE8F08110B586B001AA0021624804F0D0
:1015A000C4FD9DF80E00082801D006B010BD5F48AC
:1015B000007800F580700199814204D00198B0F55F
:1015C000827F00D0F1E79DF80F0020B1012803D001
:1015D000022816D101E015E014E09DF81000010684
:1015E0009DF8110041EA00419DF8120041EA0020F7
:1015F0009DF8131040EA01044D48C460FFF7B4F8A9
:1016000000E000BF00BF00BFCFE72DE9F04186B08A
:1016100007460E4690460024CDF8048000208DF841
:101620000C008DF80D008DF80E6000BF05E0395DEF
:101630000DF10F000155601C84B2B442F7DB00BF0E
:1016400001A9394804F07CFC0546042DF8D000249B
:1016500001E0601C84B22946334804F009FD18B942
:1016600040F6FF708442F4DB40F6FF70844203DBF7
:10167000012006B0BDE8F0810020FAE730B585B062
:1016800005460021284804F0D3FD10B9002005B01C
:1016900030BD6A460021244804F047FD002404E0E0
:1016A0000DF10B00005D2855641C9DF80A00A04256
:1016B000F6D89DF80A00EAE77CB5044600200090C1
:1016C000019004F580752A4608216846FFF79DFFC2
:1016D0007CBD7CB5044617A103C9CDE9000104F522
:1016E00080752A4608216846FFF78FFF7CBD7CB5D0
:1016F00005460C4611A103C9CDE9000105F5807628
:10170000200E8DF80100200C8DF80200200A8DF8C3
:101710000300E0B28DF80400324608216846FFF766
:1017200074FF7CBD000002400064004010020020F5
:10173000A0160020010000000000000002000000D0
:101740000000000001466948814201D20020704734
:101750006748814201D20820F9E76648814201D2F8
:101760001020F4E76448814201D21820EFE7634873
:10177000814201D22020EAE76148814201D228203B
:10178000E5E76048814201D23020E0E75E488142CF
:1017900001D23820DBE75D48814201D24020D6E704
:1017A0005B48814201D24820D1E75A48814201D2A8
:1017B0005020CCE75820CAE730B50346002005E0AA
:1017C00033F8104022F81040441CA0B201EBD17550
:1017D000B0EB650FF4DB30BD2DE9F04106460D4658
:1017E000174604F051FF002408E037F814100222D5
:1017F00002FB046005F0DEF8601C84B205EBD571D5
:10180000012202EB6101A142EFDC04F04AFFBDE8D6
:10181000F08170B5044604F037FF002004F017FF94
:101820002046FFF78FFF0546022104F081FF04F0F8
:1018300038FF70BD10B53348FFF7EBFF364A4FF461
:1018400042613048FFF7C8FF10BD10B52C48FFF7C4
:10185000E0FF324A4FF4E4712948FFF7BDFF10BDA5
:1018600010B52E4A02212648FFF7A6FF2B48008814
:1018700044F2AA51884207D0084628490880FFF759
:10188000E4FFFFF7D7FF10BD244A40F2C9111C48FE
:10189000FFF792FF00BFF6E710B5FFF7E1FF10BDBD
:1018A00010B51848FFF7B5FF10BD10B51A4A4FF430
:1018B00042611448FFF790FF10BD00B5164A02219F
:1018C0001048FFF779FF1448008845F2AA51884272
:1018D00003D008461049088000BD0F4A4FF442610A
:1018E0000848FFF769FF00BFF6E700000040000866
:1018F0000080000800C00008000001080000020885
:1019000000000408000006080000080800000A089B
:1019100000000C0800000E08800A002008000020CB
:101920007FB505460C46002240F22551FC4802F0E6
:1019300034FD002240F22661F94802F02EFD00211C
:10194000F74802F074FCF74850F825600096002034
:10195000ADF806001CB9ADF80400ADF80800012C84
:1019600006D12003ADF804004FF4C060ADF80800C4
:10197000022C05D1E002ADF804008010ADF808009B
:101980000020ADF80C000C20ADF80A006946E448D0
:1019900002F0C5FB012240F22661E14802F0FDFCA5
:1019A000012240F22551DE4802F0F7FC0121DC481B
:1019B00002F03DFC7FBD0EB50121202001F058FB57
:1019C0000121402001F054FB0121022001F050FBD5
:1019D0000121880401F095FB07220A21D24801F079
:1019E00034F907220B21D04801F02FF94FF4406061
:1019F000019002208DF8080003208DF809000020D6
:101A00008DF80A0001208DF80B0001A9C64801F0ED
:101A100091F80220019001208DF8080003208DF834
:101A2000090000208DF80A0001208DF80B0001A9A3
:101A3000BE4801F07FF84FF40040019001208DF87E
:101A4000080003208DF8090000208DF80A0001200D
:101A50008DF80B0001A9B64801F06CF827208DF82D
:101A6000000003208DF801008DF8020001208DF8A0
:101A70000300684600F06DFFAE4A117E92F8B10196
:101A8000FFF74EFF0EBD10B50446012C08D1022110
:101A9000A64801F0CDF8E103A54801F0C9F820E01F
:101AA0004CB90221A14801F0C1F84FF40041A0480F
:101AB00001F0BEF815E0022C08D102219B4801F08C
:101AC000B7F8A1039A4801F0B1F80AE0032C08D155
:101AD0000221964801F0AAF84FF40041944801F021
:101AE000A5F810BD944880789349C97800EB01208F
:101AF000C0B2704710B591480078012805DB8E48C8
:101B000000787E2801D0002010BD8C480078022883
:101B100011DB8948407842280DD087484078452815
:101B200009D085484078482805D083484078502817
:101B300001D00020E8E781480078042807DBFFF7A0
:101B4000D1FF0446282C01DD0020DDE700BF012085
:101B5000DAE7014600230022022901DA002070475B
:101B6000012205E07448805C1844C3B2501C82B264
:101B7000881E9042F6DC1846F1E770B56F48007891
:101B8000042801DA002070BDFFF7ACFF801DC4B24D
:101B90000CB90020F7E769480078A04201DA00207C
:101BA000F1E72046FFF7D5FF0546A01E6249085C15
:101BB000A84205D1601E085C7E2801D10220E2E720
:101BC0000120E0E75D480078012801DA0020704735
:101BD000012106E05848425C481E574B1A54481CE5
:101BE000C1B2564800788142F4DB54480078401E68
:101BF000524A10700120EAE770B505464E484F4939
:101C0000097845544D480078401C4C4908700846F6
:101C10000078052813D2DFE800F00305060407006A
:101C20003DE03CE000BF00BF03E0FFF7CBFF00B9A1
:101C300003E0FFF75FFF0028F7D000BF2FE0FFF7BA
:101C40009CFF0446022C1AD1002405E03A48005DAE
:101C50003B490855601CC4B2384800788442F5DB23
:101C6000364800783749086001203749087000205D
:101C700032490870354800681AF059FB0EE0012C13
:101C80000BD1FFF79FFF03E0FFF79CFF00B903E0D4
:101C9000FFF730FF0028F7D000E000BF00BF00BF13
:101CA00070BD2B4800782B490978884201DA012061
:101CB00070470020274908702549087000BFF7E7E2
:101CC00023480078234A127890420ADA2248204AB0
:101CD0001278815C1E480078401C1D4A107008462E
:101CE000704700201B4A1070194A107000BFF7E7B8
:101CF00010B5FFF7E5FF04462146094802F0C2FA95
:101D000010BD70B540F22551054802F081FB28B3A3
:101D1000034802F0BBFAC4B22046FFF76DFF32E081
:101D20000048004060E20108000402400018024040
:101D30000014024008000020B01700201F020020FD
:101D4000B0180020180200201E020020D00300203E
:101D50001C0200201D020020B016002040F2266167
:101D6000844802F055FB70B140F22661814802F0D0
:101D70008AFBFFF796FF30B1FFF7A2FF0546294621
:101D80007C4802F07FFA7B48008820F008007949FF
:101D9000088070BDF8B506460D4600244FF400716A
:101DA000754800F045FF6A460021744800681AF043
:101DB0000FFA734800880012724908707048007862
:101DC0004870714890F8B301887000BF04E0315D3D
:101DD000E01C6C4A1154641CAC42F8D300206B49DF
:101DE0000870E81C6A490870FFF782FF63480068C2
:101DF0001AF09DFAF8BD1CB56648407B6549097B21
:101E000000EB01205E49088001A9002005F014F9CB
:101E10006946002005F0AAF97E205E49087050202E
:101E200048700B2088700020C8709DF8030000F5F2
:101E3000FA6008719DF8030000F5FA60001248711D
:101E40009DF8010088719DF80200C8719DF804009A
:101E500008729DF8050048729DF8060088729DF88A
:101E60000000C8724C4890F81C0C08734A4890F85F
:101E70001D0C4873484890F81E0C88730020C873E6
:101E8000012407E04348C07B4249095D08444149B9
:101E9000C873641C0F2CF5D37E203E4908741120B2
:101EA0003E490860084601683A48FFF773FF012081
:101EB0001CBD10B53748407A632811DB3548807A5D
:101EC000354991F81D1C88420AD13248C07A3249FE
:101ED00091F81E1C884203D100202F4981F81C0C68
:101EE0002E48008881B22B4808F07EFCFFF783FF64
:101EF000012010BDF8B506460D4600244FF40071D0
:101F00001D4800F095FE6A4600211C4800681AF042
:101F10005FF900BF03E0305D1A490855641CAC420C
:101F2000F9D300201949087019490D70FFF7E0FE38
:101F3000124800681AF0FBF9F8BD10B5C12011492C
:101F400008704870887000201049087003201049FC
:101F50000870FFF7CDFE10BD0020114908700D4834
:101F60004078452803D101200E49087000E000BFE9
:101F700000BF70470048004000140240D00100201C
:101F800022020020B0160020080000201C020020C1
:101F90001D020020B0180020800A00201802002036
:101FA0001E020020200200207FB505460C460022BC
:101FB00040F22551FE4802F0F0F9002240F226617D
:101FC000FB4802F0EAF90021F94802F030F9F9483B
:101FD00050F8256000960020ADF806001CB9ADF859
:101FE0000400ADF80800012C06D12003ADF8040070
:101FF0004FF4C060ADF80800022C05D1E002ADF846
:1020000004008010ADF808000020ADF80C000C2092
:10201000ADF80A006946E64802F081F8012240F274
:102020002661E34802F0B9F9012240F22551E04867
:1020300002F0B3F90121DE4802F0F9F87FBD0EB5D8
:102040000121402001F014F80121042001F010F8D2
:102050000121202001F066F808220621D64800F070
:10206000F4FD08220721D44800F0EFFDC0200190C4
:1020700002208DF8080003208DF8090000208DF85B
:102080000A0001208DF80B0001A9CB4800F052FD99
:102090002020019001208DF8080003208DF8090010
:1020A00000208DF80A0001208DF80B0001A9C3481B
:1020B00000F040FD1020019001208DF80800032061
:1020C0008DF8090000208DF80A0001208DF80B0022
:1020D00001A9BA4800F02EFD47208DF8000002202B
:1020E0008DF8010003208DF8020001208DF8030017
:1020F000684600F02EFCB24A117E92F8BF01FFF74D
:1021000053FF0EBD10B50446012C08D12021AB4869
:1021100000F08EFD1021A94800F08AFD1EE044B9B0
:102120001021A64800F082FD2021A44800F080FD87
:1021300014E0022C08D11021A04800F079FD2021E4
:102140009E4800F073FD09E0032C07D110219B4845
:1021500000F06CFD2021994800F068FD10BD994801
:1021600080789849C97800EB0120C0B2704710B55B
:1021700095480078012805DB924800787E2801D038
:10218000002010BD90480078022811DB8D4840786F
:1021900042280DD08B484078452809D0894840789E
:1021A000482805D087484078502801D00020E8E72B
:1021B00085480078042807DBFFF7D1FF0446282C68
:1021C00001DD0020DDE700BF0120DAE70146002342
:1021D0000022022901DA00207047012205E0794837
:1021E000805C1844C3B2501C82B2881E9042F6DC58
:1021F0001846F1E770B574480078042801DA002029
:1022000070BDFFF7ACFF801DC4B20CB90020F7E72A
:102210006D480078A04201DA0020F1E72046FFF780
:10222000D5FF0546A01E6749085CA84205D1601E7F
:10223000085C7E2801D10220E2E70120E0E7624845
:102240000078012801DA00207047012106E05D488E
:10225000425C481E5B4B1A54481CC1B25A48007875
:102260008142F4DB58480078401E574A1070012024
:10227000EAE770B505465348534909784554524832
:102280000078401C5049087008460078052813D291
:10229000DFE800F00305060407003DE03CE000BF76
:1022A00000BF03E0FFF7CBFF00B903E0FFF75FFFDC
:1022B0000028F7D000BF2FE0FFF79CFF0446022C58
:1022C0001AD1002405E03F48005D40490855601CD4
:1022D000C4B23D4800788442F5DB3B4800783C4975
:1022E00008603C4800681AF022F801203A4908705A
:1022F0000020354908700EE0012C0BD1FFF79FFF3D
:1023000003E0FFF79CFF00B903E0FFF730FF002870
:10231000F7D000E000BF00BF00BF70BD2F480078BD
:102320002F490978884201DA0120704700202C49A2
:1023300008702A49087000BFF7E728480078284A43
:10234000127890420ADA2748244A1278815C23489E
:102350000078401C214A1070084670470020204A2F
:1023600010701E4A107000BFF7E710B5FFF7E5FFC9
:10237000044621460E4801F085FF10BDF8B504461D
:102380000F4600254FF40071174800F051FC6A46D3
:1023900000211648006819F01BFF4FF480611248B5
:1023A00000F046FC4FF480710E481BF00AFD1FE060
:1023B0000014014080E201080008024000180240B9
:1023C00008000020B01A002027020020B01D0020C5
:1023D00028020020D403002026020020240200202E
:1023E00025020020B01B002000140240D401002070
:1023F0004FF48071FE481BF0E4FCFE48B0F8BC01CD
:102400000012FD490870FB4890F8BC014870F9487B
:1024100090F8C10188702078C87060780871A07841
:102420004871E07888712079C87160790872A07964
:102430004872E0798872207AC872607A0873A07A4C
:102440004873E07A8873EB48B0F8BA010012C87399
:10245000E84890F8BA010874A07B4874E07B88745F
:10246000207CC874607C0875A07C4875E07C887509
:10247000207DC87500200876042507E0DE48007E30
:10248000DD49495D0844DC4908766D1C182DF5D3FB
:10249000A07DD94948760020D8490870F81CD84951
:1024A0000870D448B0F8BC010012D1490870D14876
:1024B00090F8BC014870CF4890F8C101887020782E
:1024C000C87060780871A0784871E07888712079C8
:1024D000C87160790872A0794872E0798872207AB0
:1024E000C872607A0873A07A4873E07A8873C1482A
:1024F000B0F8BA010012C873BE4890F8BA01087467
:10250000A07B4874E07B8874207CC874607C08756C
:10251000A07C4875E07C8875207DC8750020087611
:10252000042507E0B248007EB149495D0844B0493E
:1025300008766D1C182DF5D3A07DAD494876002690
:1025400007E0AD48805DAA49895D884200D0F8BDAA
:10255000761C1A2EF5D3FFF708FFAA48006819F079
:10256000E6FE00BFF3E7F8B506460D4600244FF43B
:102570000071A54800F05CFB6A460021A148006894
:1025800019F026FE4FF480619F4800F051FB9F48F0
:1025900000880012984908709C4800784870954857
:1025A00090F8C101887000BF04E0315DE01C924AE0
:1025B0001154641CAC42F8D3002090490870E81C08
:1025C0008F490870FFF7D1FE8E48006819F0AFFE02
:1025D000F8BDF8B506460D4600244FF400718A4850
:1025E00000F026FB6A4600218648006819F0F0FDDD
:1025F00000BF03E0305D80490855641CAC42F9D34C
:1026000000207E4908707E490D70FFF7AEFE7D48C0
:10261000006819F08CFEF8BD38B5764890F81D01B9
:10262000082843D16A4600217648006819F0D0FD99
:102630007048B0F8BC0100126F4908706D4890F8FE
:10264000BC0148706B4890F8C10188707E20C8704A
:102650004820087103204871002088716548B0F84F
:10266000BA010012C871634890F8BA0108720020DC
:1026700048728872042407E05F48807A5E49095DE9
:1026800008445D498872641C0A2CF5D37E205A499F
:10269000C8720020594908700C2059490870FFF78A
:1026A00064FE5848006819F042FE00BF38BD70B59E
:1026B00040F22551564801F0ABFE38B1544801F0C4
:1026C000E5FDC4B22046FFF7D4FD14E040F22661D8
:1026D0004F4801F09DFE70B140F226614C4801F078
:1026E000D2FEFFF71BFE30B1FFF727FE0546294655
:1026F000474801F0C7FD4648008820F008004449DB
:10270000088070BD2DE9F0473A4890F81D0108286F
:1027100033D1404800793F49497900EB0124B4F5B1
:10272000FA6F01D9A4F5FA643A488579C67990F828
:10273000088090F8099090F80AA0C77A5246494656
:1027400040460123FEF7A2F83B4632462946E0B256
:10275000FEF7AEF845F25001002005F052F82D4882
:10276000007B2D4981F81C0C2A48407B81F81D0C08
:102770002848807B81F81E0C00BF0120BDE8F0874F
:102780001CB52448407B2349097B00EB01201F49ED
:10279000088001A9002004F04FFC6946002004F0E5
:1027A000E5FC7E201B490870502048700B20887083
:1027B0000020C8709DF8030000F5FA6008719DF8CC
:1027C000030000F5FA60001248719DF8010088715D
:1027D0009DF80200C8719DF8040008729DF805007C
:1027E00048729DF8060088729DF80000C87215E0D6
:1027F000B01C002008000020B01B00202402002094
:1028000025020020D4010020001402402C020020E8
:1028100000140140B01D0020800A0020334890F8C9
:102820001C0C0873314890F81D0C48732F4890F821
:102830001E0C88730020C873012407E02C48C07B5D
:102840002B49095D08442A49C873641C0F2CF5D331
:102850007E2027490874112026490860084601682F
:102860002348FFF780FE01201CBD10B5224890F8D8
:102870001D0107281ED11E48407A632811DB1C4821
:10288000807A1A4991F81D1C88420AD11848C07AEA
:10289000164991F81E1C884203D10020134981F883
:1028A0001C0C1448008881B2114807F09DFFFFF707
:1028B00067FF00E000BF012010BD10B500200F49E8
:1028C00008700F4908700A484078452807D05028FA
:1028D00008D1FFF717FF01200A49086003E0FFF75E
:1028E000C4FF00E000BF00BF10BD0000800A002050
:1028F000B01D002028020020080000201E02002039
:10290000260200203002002009488047094800477D
:10291000FEE7FEE7FEE7FEE7FEE7FEE7FEE7FEE78F
:10292000FEE7FEE704480549054A064B70470000EC
:10293000DD04000889010008687E01206884012008
:10294000688001206880012032490143324A1160C9
:10295000704770B5002100230F22C4781CB32E4CA1
:10296000246804F4E064C4F5E064C4F30721C1F111
:102970000404E3B20A4144789C40E1B284781440F4
:1029800021430C07210E254C05786155047804F08D
:102990001F050124AC4005786D11AD0005F1E0255F
:1029A000C5F8004109E0047804F01F050124AC409B
:1029B0001B4D0678761145F8264070BD194A0A402D
:1029C0000243154B1B1F1A60704739B1124A121D82
:1029D00012680243104B1B1D1A6006E00E4A121DBE
:1029E000126882430C4B1B1D1A607047042808D1E3
:1029F0004FF0E021096941F004014FF0E02211613C
:102A000007E04FF0E021096921F004014FF0E022D6
:102A1000116170470000FA050CED00E000E400E0F1
:102A200080E100E080FFFF1F10B504469848844213
:102A300008D10121084600F086FB0021012000F0AA
:102A400082FB76E09348844208D10121022000F005
:102A50007AFB0021022000F076FB6AE08E48844277
:102A600008D10121042000F06EFB0021042000F0B9
:102A70006AFB5EE08948844208D10121082000F009
:102A800062FB0021082000F05EFB52E08448844293
:102A900008D10121102000F056FB0021102000F089
:102AA00052FB46E07F48844208D10121202000F0FB
:102AB0004AFB0021202000F046FB3AE07A4884429D
:102AC00008D10121402000F03EFB0021402000F011
:102AD0003AFB2EE07548844208D10121802000F0A5
:102AE00032FB0021802000F02EFB22E0704884425F
:102AF00008D10121801500F026FB0021A01500F06F
:102B000022FB16E06B48844208D10121401500F0F9
:102B10001AFB0021601500F016FB0AE066488442AB
:102B200007D10121001500F00EFB0021201500F057
:102B30000AFB10BDF0B50A4600210023002400BFA7
:102B40003DE0012505FA01F3156805EA03049C42FE
:102B500034D105684F000326BE40B54305601579A2
:102B60004E00B5400668354305601579012D02D049
:102B70001579022D16D185684F000326BE40B54356
:102B8000856055794E00B540866835438560456857
:102B900001268E40B5434560456896798E40B6B2B1
:102BA00035434560C5684F000326BE40B543C56048
:102BB000D5794E00B540C6683543C560491C10291B
:102BC000BFD3F0BD4FF6FF7101600021017141716B
:102BD0008171C171704708B54FF480320092009A3C
:102BE0000A430092009AC261C161009AC261C2693F
:102BF0000092C269009208BD0246002013690B4092
:102C00000BB1012000E0002070470146086980B246
:102C100070470246002053690B400BB1012000E0D1
:102C2000002070470146486980B2704701837047B1
:102C3000418370470AB1018300E0418370474161DD
:102C4000704742694A4042617047F0B50023002452
:102C50004D07ED0E02FA05F3CE1000F1200555F8F0
:102C600026504E07F70E0F26BE40B543CF1000F199
:102C7000200646F82750CE1000F1200555F82650C2
:102C800045EA0304CE1000F1200545F82640F0BDCA
:102C9000000002400004024000080240000C024014
:102CA000001002400014024000180240001C0240C4
:102CB000002002400024024000280240F948006839
:102CC00040F00100F74908600020F649083108602B
:102CD000F4480068F4490840F2490860F348091DC7
:102CE0000860F348EF4984310860F0481038091D46
:102CF0000860EC48006820F48020EA490860002061
:102D0000E8490C310860E7498C31086070470021C0
:102D1000E44A921C117011460870704710B50146C4
:102D20000022002300204A11012A02D1DD4C236831
:102D300008E0022A03D1DB4C7034236802E0D94C4E
:102D40007434236801F01F02012494401C400CB12C
:102D5000012000E0002010BD38B5002000900024C4
:102D6000002500BF3120FFF7D9FF05460098401C21
:102D700000900098B0F5A04F01D0002DF2D0312086
:102D8000FFF7CCFF08B1012400E00024204638BD45
:102D900001460020C34A106820F0F80040EAC10054
:102DA00010607047C349086070470021BD4A703207
:102DB00011701170012802D004280AD104E0012109
:102DC000B84A7032117005E00521B64A70321170B0
:102DD00000E000BF00BF7047B7490860704770B59A
:102DE000049C41EA82150126C6EB530645EA0645D6
:102DF000054345EA0465AB4E361D356070BDAD49EF
:102E000008667047820142EA0172A64B84331A6059
:102E10007047A8498866704710B5830143EA01638B
:102E200043EA02739F4C8834236010BDA1490867B0
:102E30007047A049C864704702460020994B083388
:102E4000186820F0EC6042EA01031843954B083300
:102E50001860704702460020924B0833186820F033
:102E6000784042EA010318438E4B083318607047DC
:102E7000014600208B4A0832106820F00300084306
:102E80001060704787480830006800F00C007047F9
:102E900001460020834A0832106820F0F000084301
:102EA00010607047014600207E4A0832106820F406
:102EB000E05008431060704701460020794A08320C
:102EC000106820F4604040EAC10010607047F0B51F
:102ED000002100220024022500260223714F08371A
:102EE0003F6807F00C0121B1042905D0082937D12A
:102EF00005E0724F076036E0714F076033E0694FBD
:102F00003F1D3F68C7F38056664F3F1D3F6807F07F
:102F10003F036EB16A4FB7FBF3F7DFF888C10CF1DE
:102F2000040CDCF800C0CCF3881C07FB0CF40CE0AC
:102F3000624FB7FBF3F7DFF86CC10CF1040CDCF85F
:102F400000C0CCF3881C07FB0CF4564F3F1D3F68B4
:102F5000C7F301477F1C7D00B4FBF5F7076002E073
:102F6000564F076000BF00BF4E4F08373F6807F05D
:102F7000F0010909534F7A5C0768D7404760494F11
:102F800008373F6807F4E051890A4E4F7A5C47687A
:102F9000D7408760434F08373F6807F46041490BCB
:102FA000484F7A5C4768D740C760F0BD002100F405
:102FB0004072B2F5407F0AD13A4A0832116821F4D2
:102FC000F811414A02401143364A08321160354A2D
:102FD00070321268C0F30B031A43324B70331A601D
:102FE00070473549443908607047334940390860B3
:102FF000704736490860704701460020294A8C32E4
:10300000106820F01F004A1E1043264A8C321060C0
:10301000704701460020234A8C32106820F4F85093
:103020004A1E40EA02201F4A8C3210607047014657
:1030300000201C4A8C32106820F4401008431060B5
:10304000704701460020174A8C32106820F4400077
:1030500008431060704701460020124A8C32106805
:1030600020F44030084310607047194908607047E9
:1030700039B10C4A3032126802430A4B30331A60BD
:1030800006E0084A303212688243064B30331A6039
:103090007047F9B1034A343212680243014B3433AA
:1030A0001A601CE000380240FFFFF6EA10300024EE
:1030B0000030002000004742800E47420024F40008
:1030C00040787D0134020020FFFCFF0F5C01474285
:1030D000E01147428F4A126882438E4B1A60704754
:1030E00039B18C4A121D126802438A4B1B1D1A60AB
:1030F00006E0884A121D12688243864B1B1D1A6027
:10310000704739B1834A0C3212680243814B0C3349
:103110001A6006E07F4A0C32126882437D4B0C3302
:103120001A60704739B17B4A103212680243794BFA
:1031300010331A6006E0774A103212688243754BEA
:1031400010331A60704739B1724A243A1268024348
:10315000704B243B1A6006E06E4A243A12688243A0
:103160006C4B243B1A60704739B16A4A203A1268A6
:103170000243684B203B1A6006E0664A203A126818
:103180008243644B203B1A60704739B1614A1C3A54
:10319000126802435F4B1C3B1A6006E05D4A1C3A12
:1031A000126882435B4B1C3B1A60704739B1594A25
:1031B000143A12680243574B143B1A6006E0554A12
:1031C000143A12688243534B143B1A60704739B16A
:1031D000504A103A126802434E4B103B1A6006E008
:1031E0004C4A103A126882434A4B103B1A607047AF
:1031F00039B1484A1C3212680243464B1C331A60EC
:1032000006E0444A1C3212688243424B1C331A6067
:10321000704739B13F4A2032126802433D4B203398
:103220001A6006E03B4A203212688243394B203351
:103230001A60704739B1374A243212680243354B5D
:1032400024331A6006E0334A243212688243314B39
:1032500024331A60704739B12E4A2C321268024367
:103260002C4B2C331A6006E02A4A2C321268824317
:10327000284B2C331A60704739B1264A3032126815
:103280000243244B30331A6006E0224A303212687F
:103290008243204B30331A607047012808D11D4902
:1032A0003C31096841F008011A4A3C32116007E0DC
:1032B00018493C31096821F00801164A3C32116076
:1032C000704739B1134A273A12780243114B273B12
:1032D0001A7006E00F4A273A127882430D4B273BBB
:1032E0001A7070470B484030006840F08070094900
:1032F00040310860704701460020064A283A1268AB
:103300000A400AB1012000E0002070470149263937
:10331000087070473438024010B501218803FFF768
:1033200056FF00214FF48040FFF751FF10BD1C49AC
:10333000086070471B490862704730B500228B0750
:103340001C0F0F2303FA04F2154B08338C1053F8AB
:1033500024309343124C08348D1044F82530234612
:103360008C1053F824308C07240F00FA04F4234304
:103370000B4C08348D1044F8253030BD0949DC3140
:1033800008607047084908607047002004492031F0
:10339000096801F4807109B1012000E00020704744
:1033A00000380140000027420004274210B50446BF
:1033B000FE48844208D101210846FFF708FF00219A
:1033C0000120FFF704FF9DE0B4F1804F08D10121F7
:1033D0000846FFF7EBFE00210120FFF7E7FE91E032
:1033E000F348844208D101210220FFF7DFFE0021CB
:1033F0000220FFF7DBFE85E0EE48844208D1012180
:103400000420FFF7D3FE00210420FFF7CFFE79E070
:10341000E948844208D101210820FFF7C7FE0021B6
:103420000820FFF7C3FE6DE0E448844208D1012183
:103430001020FFF7BBFE00211020FFF7B7FE61E070
:10344000DF48844208D101212020FFF7AFFE002190
:103450002020FFF7ABFE55E0DA48844208D1012175
:103460000220FFF7B4FE00210220FFF7B0FE49E082
:10347000D548844209D101210804FFF7A8FE0021A4
:103480004FF48030FFF7A3FE3CE0D048844209D1DE
:1034900001214804FFF79BFE00214FF40030FFF7A5
:1034A00096FE2FE0CA48844209D101218804FFF723
:1034B0008EFE00214FF48020FFF789FE22E0C548F0
:1034C000844208D101214020FFF770FE00214020F6
:1034D000FFF76CFE16E0C048844208D1012180202D
:1034E000FFF764FE00218020FFF760FE0AE0BB4882
:1034F000844207D101218015FFF758FE0021A01555
:10350000FFF754FE10BD00220288A84B98420ED04F
:10351000AC4B98420BD0B0F1804F08D0A44B9842EE
:1035200005D0A44B984202D0A34B984204D14FF649
:103530008F731A404B881A43A04B984207D0A04B78
:10354000984204D04FF6FF431A400B891A43028079
:103550004B68C3620B880385944B984202D0994B09
:10356000984201D18B7A03860123838270474FF002
:10357000FF314160002101800181418081727047EB
:103580000185828270470A46002101884FF68F73B9
:10359000194011430180704741627047C162704712
:1035A0000146486A70470146088D704721B102887C
:1035B00042F00202028004E002884FF6FD731A40D6
:1035C0000280704721B1028842F00402028004E0C8
:1035D00002884FF6FB731A400280704721B10288BF
:1035E00042F08002028004E002884FF67F731A40A6
:1035F0000280704702884FF6F7731A4002800288F3
:103600000A430280704702884FF6FF431A40028047
:1036100002880A430280704721B1028842F0010209
:10362000028004E002884FF6FE731A400280704761
:1036300070B5002400220023058C4FF6FE7635403D
:103640000584028C8388048B4FF68F752C40B51E41
:103650002C400D882C43751E2A408D892A434D88A5
:103660002A43524DA84202D0564DA84213D14FF6DC
:10367000F7752A40CD892A434FF6FB752A408D887D
:103680002A434FF6FF652B404FF6FF552B400D8A1E
:103690002B434D8A2B43838004838D6845630284CA
:1036A00070BD70B5002400220023058C4FF6EF7624
:1036B00035400584028C8388048B48F6FF752C40C6
:1036C0004FF6FF452C400D884FF6FF7606EA05259C
:1036D0002C434FF6DF752A408D8906EA05152A43EB
:1036E0004D8806EA05152A43304DA84202D0354DD3
:1036F000A8421DD14FF67F752A40CD894FF6FF763F
:1037000006EA05152A434FF6BF752A408D8806EA5A
:1037100005152A434FF6FF352B404FF2FF752B401E
:103720000D8A06EA85052B434D8A06EA85052B435B
:10373000838004838D688563028470BD70B5002426
:1037400000220023058C4FF6FF6635400584028C6D
:103750008388848B4FF68F752C404FF6FC752C4078
:103760000D882C434FF6FF552A408D894FF6FF7682
:1037700006EA05252A434D8806EA05252A430B4D0E
:10378000A84202D00F4DA84238D14FF2FF752A400F
:10379000CD894FF6FF7606EA05252A434FF6FF3519
:1037A0002A408D8806EA05252A4319E000000140D9
:1037B0000004004000080040000C004000100040E1
:1037C000001400400004014000400140004401405A
:1037D0000048014000180040001C0040002000404C
:1037E0004EF6FF752B404DF6FF752B400D8A06EA0D
:1037F00005152B434D8A06EA05152B4383808483E8
:103800008D68C563028470BD70B50022002300245A
:10381000058C4EF6FF7635400584038C8488828BB8
:1038200048F6FF752A404FF6FF452A400D884FF6AF
:10383000FF7606EA05252A434DF6FF752B408D8954
:1038400006EA05352B434D8806EA05352B43FE4D28
:10385000A84202D0FD4DA84208D14BF6FF752C407E
:103860000D8A4FF6FF7606EA85152C438480828305
:103870008D680564038470BD0021018041808180D2
:1038800081608181C18101824182704770B50346A8
:10389000002000241846183001258D40ACB21D8C44
:1038A000A5431D8409B108290AD100EB6100056810
:1038B0004FF68F76354005600568154305600FE0CB
:1038C0000D1FC5F34E052844056848F6FF763540C0
:1038D000056005684FF6FF7606EA02263543056067
:1038E00070BD4163704781637047C1637047016475
:1038F00070470A460021018B4FF68F731940114320
:10390000018370470A460021018B48F6FF73194076
:103910004FF6FF7303EA02231943018370470A46F7
:103920000021818B4FF68F731940114381837047BB
:103930000A460021818B48F6FF7319404FF6FF734A
:1039400003EA02231943818370470A460021018B51
:103950004FF6F77319401143018370470A4600215F
:10396000018B4FF2FF7319404FF6FF7303EA0223F6
:103970001943018370470A460021818B4FF6F77384
:1039800019401143818370470A460021818B4FF211
:10399000FF7319404FF6FF7303EA02231943818333
:1039A00070470A460021018B4FF6FB731940114303
:1039B000018370470A460021018B4FF6FF331940FF
:1039C0004FF6FF7303EA02231943018370470A4647
:1039D0000021818B4FF6FB7319401143818370479F
:1039E0000A460021818B4FF6FF3319404FF6FF73D3
:1039F00003EA02231943818370470A460021018BA1
:103A00004FF67F7319401143018370470A46002126
:103A1000018BC1F30E014FF6FF7303EA0223194332
:103A2000018370470A460021818B4FF67F7319404E
:103A30001143818370470A460021818BC1F30E0137
:103A40004FF6FF7303EA02231943818370470A4646
:103A50000021018C4FF6FD7319401143018470471A
:103A60000A460021018C4FF6F77319401143018477
:103A700070470A460021018C4FF6DF7319404FF65C
:103A8000FF7303EA02131943018470470A460021B9
:103A9000018C4FF67F7319404FF6FF7303EA021350
:103AA0001943018470470A460021018C4FF6FF53E9
:103AB00019404FF6FF7303EA02231943018470474C
:103AC0000A460021018C4FF2FF7319404FF6FF7335
:103AD00003EA02231943018470470A460021018C3E
:103AE0004DF6FF7319404FF6FF7303EA0233194393
:103AF0000184704730B5002301248C40A3B2048CAC
:103B00009C430484048C02FA01F5ADB22C43048476
:103B100030BD30B5002304248C40A3B2048C9C43F8
:103B20000484048C02FA01F5ADB22C43048430BD48
:103B3000828B4FF2FF331A408283828B4FF6FF73E2
:103B400003EA01231A4382837047F0B50C461546F9
:103B5000002100220026078C4EF6FF7C07EA0C07A6
:103B60000784818B028C4FF6FF7707EA043640F614
:103B7000FF4739404FF6FF7707EA052739434FF6ED
:103B8000FF7707EA0337394345F6FF773A4046F4B3
:103B900080573A4381830284F0BD828B4FF6F373E2
:103BA0001A408283828B0A4382837047F0B50C46A9
:103BB0001546002100220026078C4FF6FF6C07EA0D
:103BC0000C070784818B028C4FF6FF7707EA0426E7
:103BD0004FF60C7739404FF6FF7707EA03172F436C
:103BE00039434FF2FF573A4046F480773A43818396
:103BF0000284F0BD028B4FF2FF331A400283028B26
:103C00004FF6FF7303EA01231A4302837047F0B5AE
:103C10000C461546002100220026078C4FF6EF7C4B
:103C200007EA0C070784018B028C4FF6FF7707EA3F
:103C3000041640F6FF4739404FF6FF7707EA03378F
:103C400039434FF6FF7703E00000014000040140D4
:103C500007EA052739434FF65F773A4046F01007E9
:103C60003A4301830284F0BD028B4FF6F3731A408E
:103C70000283028B0A4302837047F0B50C46154657
:103C800000210022068C4FF6FE773E400684018B11
:103C9000028C4FF60C7631407E1C06EA03162E434A
:103CA00031434FF6F576324044F00106324301834A
:103CB0000284F0BD70B505460C46208850B92389B2
:103CC000A28861882846FFF7D8FFE1882846FFF7D9
:103CD000CBFF25E0208804280AD12389A2886188A7
:103CE0002846FFF794FFE1882846FFF783FF17E097
:103CF000208808280AD12389A28861882846FFF7EE
:103D000055FFE1882846FFF748FF09E02389A2888C
:103D100061882846FFF719FFE1882846FFF708FF6A
:103D200070BD002101804180012181800021C1807E
:103D3000018170472DE9F04105460C460026012718
:103D4000608808B9022600E00026A088012801D179
:103D5000022700E001272088A0B92389A288618872
:103D60002846FFF78AFFE1882846FFF77DFF238971
:103D70003A4631462846FFF74AFFE1882846FFF7D2
:103D800039FF13E02389A28861882846FFF73FFFA7
:103D9000E1882846FFF72EFF23893A463146284618
:103DA000FFF76BFFE1882846FFF75EFFBDE8F08173
:103DB0000146486B70470146886B70470146C86BE7
:103DC00070470146086C70470A884B881A438B88F5
:103DD0001A43CB881A430B891A434B891A438B89A0
:103DE0001A43A0F84420704700210180418081805F
:103DF000C180018141818181704731B1B0F8442097
:103E000042F40042A0F8442005E0B0F84420C2F398
:103E10000E02A0F84420704721B1828842F00402CB
:103E2000828004E082884FF6FB731A4082807047DC
:103E300021B1828842F00102828004E082884FF63C
:103E4000FE731A40828070471AB183890B438381C5
:103E500002E083898B4383817047818270470246E9
:103E60000020138A0B400BB1012000E000207047B6
:103E7000CA430282704730B5024600200023002466
:103E8000158A05EA0103958905EA010413B10CB10D
:103E9000012000E0002030BDCA430282704741EAA1
:103EA0000203A0F8483070471AB183890B4383811D
:103EB00002E083898B438381704721B1828842F07D
:103EC0000802828004E082884FF6F7731A408280ED
:103ED000704701894FF6F8721140018170470A4618
:103EE000002101894FF68F731940114301817047FA
:103EF00030B504460D4629462046FFF7F0FF2089DD
:103F000040F00700208130BD2DE9F04104460D4608
:103F100016461F46602D06D13B46012231462046FB
:103F2000FFF775FE05E03B46012231462046FFF7CC
:103F3000A4FE29462046FFF7D2FF208940F0070063
:103F40002081BDE8F08130B50C4600210189C9B25D
:103F50004FF6FF7505EA03251543254329430181E3
:103F600030BD2DE9F04105460E461746984600241F
:103F700043463A4631462846FFF7E5FF2C894FF67F
:103F8000F870044044F007044FF68F70044044F08A
:103F900070042C81BDE8F081F0B504460D4616464C
:103FA0001F463B46324629462046FFF7CCFF208974
:103FB00040F480402081F0BD82884FF68F731A4014
:103FC000828082880A438280704702894FF6F873A4
:103FD0001A40028102890A430281704702894FF622
:103FE0007F731A40028102890A4302817047F0B54B
:103FF0000C4615461E460021002200230189028B33
:10400000038C4FF6F877394021434FF6FC473A408E
:1040100040F201173A434FF6DD773B404FF6FF770A
:1040200007EA06172F433B43018102830384F0BD57
:1040300021B1828842F08002828004E082884FF6BB
:104040007F731A4082807047A0F8501070470000BC
:1040500010B50446FA48844208D101211020FFF728
:10406000B6F800211020FFF7B2F857E0F548844277
:1040700009D101214804FFF799F800214FF40030DD
:10408000FFF794F84AE0F048844209D101218804FE
:10409000FFF78CF800214FF48020FFF787F83DE010
:1040A000EA48844209D10121C804FFF77FF80021C2
:1040B0004FF40020FFF77AF830E0E548844209D158
:1040C00001210805FFF772F800214FF48010FFF777
:1040D0006DF823E0DF48844208D101212020FFF75A
:1040E00076F800212020FFF772F817E0DA488442C2
:1040F00009D101218807FFF759F800214FF08040CE
:10410000FFF754F80AE0D548844207D10121400561
:10411000FFF74CF800216005FFF748F810BD2DE9C6
:10412000FF4705460E460024A14600BFA046B089C1
:1041300000B100BF2C8A24F44054F08804432C8240
:10414000AC8941F20C608443B0883189084371899D
:1041500008430443AC81AC8A24F44074B08904431E
:10416000AC826846FEF7B3FEB548854202D0B94836
:10417000854202D1DDF80C9001E0DDF80890A889B5
:1041800000F4004040B109EBC90000EB09103168B0
:104190004900B0FBF1F707E009EBC90000EB09109B
:1041A00031688900B0FBF1F76420B7FBF0F004013F
:1041B0002009642101FB1078A88900F4004040B177
:1041C000322000EBC800B0FBF1F000F00700044320
:1041D00008E0322000EB08106421B0FBF1F000F0A1
:1041E0000F0004432C81BDE8FF874FF41651016096
:1041F00000218180C18001810C21418100218181C8
:10420000704710B502460020108A20F470600B88B9
:104210004C8823438C882343CC8823431843108243
:1042200010BD0021018041808180C180704721B193
:10423000828942F40052828104E082894DF6FF7344
:104240001A4082817047028B02F47F420283028B04
:104250000A430283704721B1828942F4004282817D
:1042600003E08289C2F30E028281704721B1828A03
:1042700042F40062828204E0828A4FF2FF731A40A5
:1042800082827047C1F308028280704701468888A5
:10429000C0F308007047028A4FF6F0731A4002829A
:1042A000028A0A430282704721B1828942F00202E7
:1042B000828104E082894FF6FD731A408281704743
:1042C00082894FF2FF731A40828182890A43828178
:1042D0007047028A4FF6DF731A400282028A0A434D
:1042E0000282704721B1028A42F48042028204E0D5
:1042F000028A4BF6FF731A4002827047818941F0AF
:1043000001018181704721B1828A42F008028282D4
:1043100004E0828A4FF6F7731A4082827047028B5C
:10432000D2B20283028B42EA01220283704721B19A
:10433000828A42F02002828204E0828A4FF6DF7392
:104340001A408282704721B1828A42F01002828232
:1043500004E0828A4FF6EF731A4082827047828AA5
:104360004FF6FB731A408282828A0A438282704728
:1043700021B1828A42F00202828204E0828A4FF6F0
:10438000FD731A40828270471AB1838A0B4383827D
:1043900002E0838A8B4383827047F0B50346002492
:1043A00000260025002040F66A17B94200D100BF60
:1043B0001846C1F3421401F01F06012707FA06F55B
:1043C000012C01D10C3004E0022C01D1103000E0AE
:1043D00014301AB107682F43076002E00768AF4343
:1043E0000760F0BD02460020B1F5007F00D100BF9C
:1043F00013880B400BB1012000E00020704701F44E
:104400000072B2F5007F00D100BFCA43028070473E
:1044100070B50246002400230025002040F66A16ED
:10442000B14200D100BFC1F3421501F01F030126C4
:1044300006FA03F3012D13D19689334017E00000EB
:10444000001001400044004000480040004C004083
:10445000005000400014014000780040007C004003
:10446000022D02D1168A334001E0968A33400C12A5
:10447000012606FA04F41688344013B10CB1012069
:1044800000E0002070BD10B50022002340F66A1441
:10449000A14200D100BF0A1201249440A3B2DC4320
:1044A000048010BD01B581B00020009001980090FB
:1044B00002E00098401E009000980028F9D10CBD41
:1044C00010B501214806FEF73EFE00214FF00070B6
:1044D000FEF739FE10BD01210160002141608160BD
:1044E000C16001614FF48041416100218161C1617E
:1044F0004FF400610162002141628162C162016387
:1045000041638163C1634021016420214164002132
:104510008164C164016541658165C1650166802171
:10452000416600218166C166016741678167C16795
:104530004FF08061C0F880104910C0F8841000214D
:10454000C0F888104FF40011C0F88C100021C0F89A
:104550009010C0F89410C0F89810C0F89C10C0F8E3
:10456000A0104FF00071C0F8A4104912C0F8A810B4
:104570008901C0F8AC104912C0F8B0100021C0F891
:10458000B410C0F8B810704738B503460C46002187
:1045900000200090F648016901F01C014FF47840BA
:1045A00000EAC32001434FF4F86000EA841001439D
:1045B00041F0020141F00101ED484261016100BF9B
:1045C0000098401C0090EA48016901F0010018B110
:1045D000E84D0098A842F3D3E64D0098A84201D1D7
:1045E000002038BD0120FCE718B502460B4600212B
:1045F00000200090DE48016901F01C014FF4784072
:1046000000EAC22001434FF4F86000EA831001433E
:1046100021F0020141F00101D548016100BF00987D
:10462000401C0090D248016901F0010018B1D14C42
:104630000098A042F3D3CF4C0098A04201D10020B3
:1046400018BDCB48406980B2FAE72DE9F04186B049
:1046500004460F464FF00008002500200590C64E86
:104660000090C348056925F01C0501A8FEF72FFC42
:10467000029EC248864205D3C148864202D245F016
:1046800008051AE0BE48864205D3BB48864202D2DE
:1046900045F00C0511E0B848864203D3B94886427C
:1046A00000D20AE0B748864205D3B748864202D214
:1046B00045F0040501E045F01005AD4805614FF4F3
:1046C000004200213846FFF75FFF18B9002006B00E
:1046D000BDE8F081AD48FFF7E5FE206800284ED028
:1046E00000BF0098401C009001213846FFF77CFF76
:1046F00000F0040018B99F4900988842F1D39D4901
:104700000098884201D10020E1E7002000904FF49A
:10471000805200213846FFF737FF08B90020D6E75E
:1047200000BF0098401C009001213846FFF75CFF55
:1047300000F0200018B98F4900988842F1D38D49C4
:104740000098884201D10020C1E7002000901F217D
:104750003846FFF749FF804608F0100018B14FF4C3
:104760000060206201E00020206208F0040010B127
:104770000020606116E04FF48040606112E0206A22
:10478000C0F3CF006169C1F34F0140EA010200218B
:104790003846FFF7F9FE08B9002098E76FF07F4030
:1047A000FFF780FE7248056879480540D4E90101A9
:1047B0000843E16808432169084361690843A16926
:1047C0000843E1690843216A0843616A0843A16A12
:1047D0000843E16A0843216B0843616B08430543C2
:1047E00063480560D4E90E010843216C0843616CFD
:1047F0000843A16C0843E16C0843216D0843616DD7
:1048000008435B494860A06D8860E06DC860084659
:1048100085694FF641700540B4F86010606E40EA5B
:104820000140A16E0843E16E0843216F0843616FA8
:10483000084305434E488561D4E91E0108434C49AD
:10484000C8615448856954480540D4E920010843AB
:10485000D4F888100843D4F88C100843D4F890108A
:104860000843D4F894100843D4F898100843D4F8B7
:104870009C100843D4F8A0100843054345488561BF
:10488000D4E929010843D4F8AC100843D4F8B01097
:104890000843D4F8B41040EA8100D4F8B8100843B3
:1048A00040F400003B4908600846006840F0800082
:1048B000086001200BE730B13649896941F00201F7
:1048C000344A916105E03349896921F00201314A96
:1048D0009161704730B12F49896941F400512D4AE7
:1048E000916105E02B49896921F40051294A9161C0
:1048F000704730B11E49096841F004011C4A11603B
:1049000005E01B49096821F00401194A116070474C
:104910002048806940F480101E498861704730B19A
:104920001349096841F00801114A116005E0104976
:10493000096821F008010E4A1160704700B5012096
:10494000FFF7EDFFFFF7E4FF0120FFF7D2FF0120A3
:10495000FFF7C0FF0120FFF7AEFF00BD00200449B4
:10496000896901F0010109B1012000E000207047D0
:1049700000800240FFFF040000879303002D3101F7
:10498000C00E160200E1F50580D1F008FFFF0F0010
:104990000F8120FF00900240233FDEF8FB48806932
:1049A00040F00100F9498861704730B1F7498969E1
:1049B00041F00101F54A916105E0F449896921F06E
:1049C0000101F24A9161704701460020EF4A926B63
:1049D0000A400AB1012000E0002070470146002093
:1049E000EA4A926B0A400AB1012000E000207047B9
:1049F00029B1E64AD26B8243E44BDA6304E0E34A2E
:104A0000D26B0243E14BDA63704710B50B794C79F6
:104A100043EA0422DD4B03441A64CB781B068C78EE
:104A200043EA04434C7843EA04230C7843EA040243
:104A3000D64B03445A6410BD0246D44B1344186C41
:104A4000030A4B710871D14B1344586C030ECB70A1
:104A5000030C8B70030A4B700870704741B1CB4A4E
:104A60000244126C42F00042C84B03441A6407E04F
:104A7000C64A0244126C22F00042C44B03441A643A
:104A80007047082908D0C14A0244126C42F08042A3
:104A9000BE4B03441A6407E0BC4A0244126C22F085
:104AA0008042BA4B03441A647047B84A0244126CFD
:104AB00022F07C52B54B03441A64B44A0244126C8F
:104AC0000A43B24B03441A6470471EB5002100220A
:104AD000009201920292AE4A12681268C2F30D422D
:104AE000111F0091AB4A12689268012A05D9A94AA0
:104AF000126812689268019203E0A54A12689268EF
:104B00000192A34A12680292A14A1268D268A04B8D
:104B10001A609DE81C0080E81C001EBD0FB5002136
:104B200001910291039100916FE00099491C00915D
:104B300097490968096801F40071A1B194490968AD
:104B4000096801F4807171B991490968914A126844
:104B5000116001218F4A126891608D490968C96806
:104B60008B4A116051E08A490968096801F4807133
:104B700091B987490968096801F4007161B98549EB
:104B800009688968491C834A1268916080490968EC
:104B9000C9687F4A116038E07D4909687D4A12681A
:104BA00051607C4909688968491C7A4A1268916099
:104BB000784909688968012904D175490968754AE5
:104BC00012681160724909680968C1F30D41091F33
:104BD0000191704909688968012905D96D490968F9
:104BE00009688968029103E0694909688968029146
:104BF00067490968039166490968C968644A116090
:104C000001A90EC980E80E000FBD61490968096855
:104C100001F0004111B90099052986D301A90EC9F7
:104C200080E80E0000BFEFE770B5024600230025C4
:104C3000002459480068006800F0004008B10020D6
:104C400070BD5548016840F2F450824208DD92FB85
:104C5000F0F392FBF0F600FB162010B15B1C00E0B5
:104C60000123012B1AD14C480068006840F04050E5
:104C7000494E36683060C2F30C00474E36687060AB
:104C800045480068006840F00040434E3668306098
:104C900041480068C068404E306028E0002422E0AF
:104CA0003CB93D480068006840F080503A4E366894
:104CB000306040F2F4504860581EA0420DD10868A0
:104CC00040F000500860581EC0EBC01000EB4000E0
:104CD000A2EB8005C5F30C004860086840F0004076
:104CE0000860C968641C9C42DAD32B4801602B48D9
:104CF000406900F0040020B10420284E70610020BB
:104D0000706001209CE770B50C4613460021204DD1
:104D1000286000BF18E000EB41124FF0004515601D
:104D200044F2F4555560C1EBC11505EB450504EBA4
:104D3000850595605D1E8D4204D900EB4115203537
:104D4000D56000E0D060491C9942E4D3134DE8607F
:104D5000134D104E356070BD0D480068006800F0BE
:104D60000040F8B90A480068006800F48070C8B1D3
:104D70000748006807490968486006480068806875
:104D8000401C044909688860012070470080024087
:104D9000480200204C020020440200200090024003
:104DA000B01F0020F9480068006800F00040F0B92A
:104DB000F6480068006800F40070C0B1F34800686D
:104DC000006800F4807090B9F0480068F049096804
:104DD00008600020EE49096848600120EC49096834
:104DE0008860EA480068C068E84908601DE0E74854
:104DF0000068006800F00040B8B9E4480068006846
:104E000000F4007088B9E1480068006800F4807020
:104E100058B9DF4800688068401CDD49096888602F
:104E2000DA480068C068D94908600020ADE730B5AD
:104E30000C4613460021D74D286000BF15E000EB5B
:104E400041124FF480151560C1EBC11505EB450506
:104E500004EB850595605D1E8D4204D900EB41157C
:104E60002035D56000E0D060491C9942E7D3CA4D97
:104E7000286130BD0246002013680B400BB10120B1
:104E800000E00020704701460868C0F3C300704787
:104E9000016841F000410160704721B1026842F0B1
:104EA0008042026003E0026822F0804202607047A4
:104EB00002680A430260704702680A430260704752
:104EC00021B1026822F00062026003E0026842F051
:104ED00000620260704721B1026842F480120260F1
:104EE00003E0026822F480120260704721B1026878
:104EF00022F08062026003E0026842F08062026099
:104F0000704710B541EA024443682343436010BD33
:104F10000246002013680B400BB1012000E0002086
:104F200070470246002013690B400BB1012000E0DE
:104F300000207047016841F0004101607047014660
:104F40000868C0F30D40704721B1426822F000426A
:104F5000426003E0426842F000424260704702460D
:104F600019B15068C0F30C4070479088C0F30C0032
:104F7000FAE700B502460023106800F0004058B977
:104F8000106800F4004038B9106800F4807018B15F
:104F90001046FFF7D4FF0346184600BD30B17E49E6
:104FA000096841F080017C4A116005E07A4909688E
:104FB00021F08001784A116070477748006840F01E
:104FC000010075490860704700207349096801F0C5
:104FD000010109B1012000E00020704701460020D6
:104FE0006D4A52690A400AB1012000E00020704772
:104FF00069494861704729B1674AD2690243664BE3
:10500000DA6104E0644AD2698243634BDA61704733
:1050100001460020604A52690A400AB1012000E0BE
:10502000002070475C49486170475B48406900F068
:10503000010070475848406900F040007047002068
:105040005549896901F4801109B1012000E000206F
:10505000704701460020504A126A0A400AB10120F6
:1050600000E0002070474C48006AC0F34A40704797
:105070004948006A80B270474748806C704746488C
:10508000C06C70474448006D70474348406D70479E
:10509000002041494860704700203F4988607047C0
:1050A0003D494862704770B506460D460024002110
:1050B0003046FFF799FA044615B144F4804402E003
:1050C0004BF6FF700440224600213046FFF75CFAA1
:1050D00008B1012070BD0020FCE73048C06A40F0F4
:1050E00000402E49C86270470146002000BF04E01E
:1050F00051F82020294B9A62401C0828F8D37047A9
:1051000030B12649C96A41F40071244AD16205E0F0
:105110002249C96A21F40071204AD16270470146D0
:1051200000201E4AD26A0A400AB1012000E0002095
:10513000704730B11949C96A41F00401174AD16278
:1051400005E01649C96A21F00401144AD16270478A
:1051500030B11249C96A41F00201104AD16205E03A
:105160000E49C96A21F002010C4AD162704730B180
:105170000A49C96A41F00101084AD16205E00749BC
:10518000C96A21F00101054AD16270474802002036
:105190004C020020440200200090024000800240A7
:1051A0004E48006840F030004D49C1F8000170479A
:1051B0004A48006820F020004949C1F8000108462B
:1051C000D0F8000140F01000C1F80001704738B17C
:1051D0004249096841F00801414AC2F8001106E05D
:1051E0003E49096821F008013D4AC2F800117047A4
:1051F00038B13A49096841F00401394AC2F800114E
:1052000006E03649096821F00401354AC2F8001168
:10521000704738B13149096821F00201304AC2F8BB
:10522000001106E02D49096841F002012C4AC2F83C
:10523000001170472948006840F001002849C1F872
:105240000001704700F0805292B120F0805039B1D7
:10525000224A0C3212688243214BC3F80C2117E01A
:105260001E4A0C32126802431D4BC3F80C210FE09A
:1052700039B11A4A103212688243194BC3F810210F
:1052800006E0164A103212680243154BC3F810218B
:1052900070470146002001F080526AB10F4A121D8A
:1052A00012680A4032B10D4A0C3212680A400AB93B
:1052B00001200EE000200CE0084A083212680A4083
:1052C00032B1064A0C3212680A400AB9012000E0E5
:1052D000002070470146024808587047008102408C
:1052E00000800240016821F001010160002101609D
:1052F00041608160C160016121214161DB498842D7
:1053000004D13D21D94A103A91608CE0D749183137
:10531000884205D14FF47461D44A103A916082E01A
:10532000D2493031884205D14FF47411CF4A103A36
:10533000916078E0CD494831884205D14FF07461E1
:10534000CA4A103A91606EE0C8496031884204D17F
:10535000C749C64A103AD16065E0C44978318842ED
:1053600004D1C449C14A103AD1605CE0BF499031D0
:10537000884204D1C049BD4A103AD16053E0BB49CC
:10538000A831884205D14FF03D51B84A103AD1605A
:1053900049E0BA49884204D13D21B84A083A11602F
:1053A00041E0B6491831884205D14FF47461B34ADF
:1053B000083A116037E0B1493031884205D14FF4E5
:1053C0007411AE4A083A11602DE0AC494831884268
:1053D00005D14FF07461A94A083A116023E0A7494A
:1053E0006031884204D1A249A44A121F11601AE018
:1053F000A2497831884204D19E49A04A121F116007
:1054000011E09E499031884204D19B499B4A121F6A
:10541000116008E09949A831884204D14FF03D510C
:10542000964A121F1160704710B500220268944B13
:105430001A40CC680B6823434C6923438C6923438F
:10544000CC6923430C6A23434C6A23438C6A23436D
:105450004C6B23438C6B23431A430260426922F056
:105460000702D1E90B3423431A4342610B694360BD
:105470004B6883608B68C36010BD00210160416090
:105480008160C160016141618161C161016241620C
:105490008162C162016341638163704721B1026827
:1054A00042F00102026003E0026822F001020260A1
:1054B000704721B1026842F40042026003E00268D2
:1054C00022F400420260704721B1026842F02002DB
:1054D000026003E0026822F020020260704741602F
:1054E00070470146486880B2704722B1036843F4B0
:1054F0000023036003E0036823F4002303600161D9
:10550000704721B1026842F48022026003E0026821
:1055100022F48022026070470AB1016100E0C1609C
:105520007047014600200A6802F400220AB10120F7
:1055300000E000207047014600200A6802F00102E6
:105540000AB1012000E000207047014600204A69AE
:1055500002F03800704730B503460A4600200024A8
:10556000464DAB4202D24149103901E0434910395E
:1055700002F000550DB14C6800E00C68414D2C4024
:1055800004EA02050DB1012000E0002030BD024612
:105590003A4B9A4202D23548103801E03748103869
:1055A00001F000531BB1374B0B40C36002E0354B99
:1055B0000B408360704710B501F080034BB122B1FE
:1055C000436943F08003436103E0436923F08003B0
:1055D000436180290BD02AB1036801F01E042343E4
:1055E000036004E0036801F01E04A343036010BDE0
:1055F00070B50246002000240025204EB24202D29F
:105600001A4B103B01E01D4B103B1F4E0E4036B1B4
:105610001E2606EAD124166806EA040502E0566949
:1056200006F0800501F000560EB15C6800E01C68D1
:10563000144E344004EA010616B10DB1012000E019
:10564000002070BD02460D4B9A4202D20748103826
:1056500001E00A48103801F000531BB1094B0B4020
:10566000C36002E0074B0B4083607047106002404C
:105670003D000020400F002000003D20106402404B
:105680003F801CF07D0F7D0F3C0F3C0F00204149F7
:105690000860091D0860091D0860091D08603E4872
:1056A0003C4914310860704700213A498279002A48
:1056B0003AD00A46126803689A430B461A600A1DDC
:1056C000126803689A430B1D1A60027911440A6834
:1056D00003681A430A602F4A0832126803689A4323
:1056E0002C4B08331A601A1D126803689A43294B21
:1056F0000C331A604279102A0ED11A1F12680368FF
:105700001A43244B08331A601A1D126803681A439F
:10571000204B0C331A600DE01E49427911440A688F
:1057200003681A430A6005E0027911440A680368B5
:105730009A430A6070470021016001710C21417198
:105740000021817170471349103109680143114AE2
:10575000103211607047014600200E4A1432126860
:105760000A400AB1012000E00020704709491431C5
:105770000860704701460020064A143212680A4049
:105780000AB1012000E0002070470249143108608E
:1057900070470000003C0140FFFF7F0010B5044649
:1057A000FB48844208D101218014FDF710FD00213F
:1057B000A014FDF70CFD3CE0F648844208D101211D
:1057C0000014FDF7F3FC00212014FDF7EFFC30E09E
:1057D000F148844208D10121C013FDF7E7FC002104
:1057E000E013FDF7E3FC24E0EC48844208D10121FA
:1057F0004014FDF7ECFC00216014FDF7E8FC18E014
:10580000E748844209D101210805FDF7E0FC0021A9
:105810004FF48010FDF7DBFC0BE0E248844208D136
:1058200001214805FDF7D3FC00214FF40010FDF7DE
:10583000CEFC10BD10B50022028802F441520B8844
:105840004C8823438C882343CC8823430C892343EF
:105850004C8923438C892343CC8923431A430280F8
:10586000838B4FF2FF74234083830B8A038210BD26
:105870002DE9F04F0025022300244FF001090022FA
:105880000026002794469046B0F81CA04FF2400B2B
:105890000AEA0B0AA0F81CA04FF0020AA0F820A008
:1058A000858BD1F808A0BAF1020F01D100BF82E0C8
:1058B000B1F804A0BAF1000F02D14FF0010901E0E4
:1058C0004FF00209DFF8E0A2DAF800A00AF4000ABB
:1058D000BAF1000F09D0DFF8D0A2DAF800A02AF45C
:1058E000000ADFF8C4B2CBF800A0DFF8BCA20AF1CE
:1058F0007C0ADAF800A0CAF3881CDFF8ACA20AF12F
:105900007C0ADAF800A0CAF30278DFF89CA2AAF1B8
:10591000040ADAF800A00AF03F07DFF88CA2AAF127
:10592000040ADAF800A00AF4800ABAF5800F08D158
:10593000DFF878A2BAFBF7FA0AFB0CFABAFBF8F622
:1059400007E0DFF86CA2BAFBF7FA0AFB0CFABAFB25
:10595000F8F6B1F806A0BAF5007F0ED14FEA162A84
:105960000AEB8A0A4FEA4A0AD1F808B0BAFBFBFAF6
:105970000AF1050A1FFA8AF20FE04FEA491AB6FB4C
:10598000FAFA0AEB8A0A4FEA4A0AD1F808B0BAFBD7
:10599000FBFA0AF1050A1FFA8AF24FF00A0AB2FB73
:1059A000FAF202F00104A2EB040ACAF34F034FF625
:1059B000FF7A0AEA0424022B01DBFF2B01DD02231C
:1059C0000024B1F806A04AEA040A4AEA030AA0F849
:1059D00020A0B1F804A0B1F80CB04AEA0B0AB1F863
:1059E00002B04AEA0B0AB1F800B04AEA0B0A4AF4DC
:1059F000006A4AEA05058583BDE8F08F0021018031
:105A000041808180C180018141818181C1810721E3
:105A1000018270470021018041808180C180022184
:105A2000816000218181704721B1028842F04002EB
:105A3000028004E002884FF6BF731A40028070476C
:105A400021B1828B42F48062828304E0828B4FF624
:105A5000FF331A408283704702884FF2FF731A4067
:105A6000028002880A4302807047B1F5804F04D15A
:105A7000028842F48042028004E002884BF6FF7301
:105A80001A40028070474FF6FF62914204D00288AC
:105A900042F48072028004E002884FF6FF631A40ED
:105AA0000280704721B1828842F00402828004E0C3
:105AB00082884FF6FB731A408280704721B182883A
:105AC00042F01002828004E082884FF6EF731A40A1
:105AD0008280704730B500220023848B4FF240054E
